{
  "contractName": "ScapulaRewardMinter",
  "abi": [
    {
      "inputs": [
        {
          "internalType": "address",
          "name": "_SCAAPaddress",
          "type": "address"
        }
      ],
      "stateMutability": "nonpayable",
      "type": "constructor"
    },
    {
      "anonymous": false,
      "inputs": [
        {
          "indexed": true,
          "internalType": "address",
          "name": "previousOwner",
          "type": "address"
        },
        {
          "indexed": true,
          "internalType": "address",
          "name": "newOwner",
          "type": "address"
        }
      ],
      "name": "OwnershipTransferred",
      "type": "event"
    },
    {
      "anonymous": false,
      "inputs": [
        {
          "indexed": false,
          "internalType": "uint256",
          "name": "amount",
          "type": "uint256"
        },
        {
          "indexed": true,
          "internalType": "address",
          "name": "account",
          "type": "address"
        }
      ],
      "name": "claim",
      "type": "event"
    },
    {
      "anonymous": false,
      "inputs": [
        {
          "indexed": false,
          "internalType": "uint256",
          "name": "amount",
          "type": "uint256"
        },
        {
          "indexed": true,
          "internalType": "address",
          "name": "account",
          "type": "address"
        }
      ],
      "name": "setreward",
      "type": "event"
    },
    {
      "inputs": [],
      "name": "SCAAP",
      "outputs": [
        {
          "internalType": "contract IERC20",
          "name": "",
          "type": "address"
        }
      ],
      "stateMutability": "view",
      "type": "function"
    },
    {
      "inputs": [],
      "name": "SCAPULA",
      "outputs": [
        {
          "internalType": "contract ISCAAP",
          "name": "",
          "type": "address"
        }
      ],
      "stateMutability": "view",
      "type": "function"
    },
    {
      "inputs": [],
      "name": "owner",
      "outputs": [
        {
          "internalType": "address",
          "name": "",
          "type": "address"
        }
      ],
      "stateMutability": "view",
      "type": "function"
    },
    {
      "inputs": [],
      "name": "renounceOwnership",
      "outputs": [],
      "stateMutability": "nonpayable",
      "type": "function"
    },
    {
      "inputs": [
        {
          "internalType": "address",
          "name": "",
          "type": "address"
        }
      ],
      "name": "rewards",
      "outputs": [
        {
          "internalType": "uint256",
          "name": "",
          "type": "uint256"
        }
      ],
      "stateMutability": "view",
      "type": "function"
    },
    {
      "inputs": [
        {
          "internalType": "address",
          "name": "newOwner",
          "type": "address"
        }
      ],
      "name": "transferOwnership",
      "outputs": [],
      "stateMutability": "nonpayable",
      "type": "function"
    },
    {
      "inputs": [
        {
          "internalType": "address",
          "name": "account",
          "type": "address"
        }
      ],
      "name": "getReward",
      "outputs": [
        {
          "internalType": "uint256",
          "name": "",
          "type": "uint256"
        }
      ],
      "stateMutability": "view",
      "type": "function"
    },
    {
      "inputs": [
        {
          "internalType": "address",
          "name": "account",
          "type": "address"
        },
        {
          "internalType": "uint256",
          "name": "amount",
          "type": "uint256"
        }
      ],
      "name": "setReward",
      "outputs": [],
      "stateMutability": "nonpayable",
      "type": "function"
    },
    {
      "inputs": [
        {
          "internalType": "address",
          "name": "_address",
          "type": "address"
        },
        {
          "internalType": "address",
          "name": "_spender",
          "type": "address"
        }
      ],
      "name": "claimReward",
      "outputs": [],
      "stateMutability": "nonpayable",
      "type": "function"
    }
  ],
  "bytecode": "0x608060405234801561001057600080fd5b50604051610e0c380380610e0c833981810160405281019061003291906101b7565b61004e6100436100d660201b60201c565b6100de60201b60201c565b80600160006101000a81548173ffffffffffffffffffffffffffffffffffffffff021916908373ffffffffffffffffffffffffffffffffffffffff16021790555080600260006101000a81548173ffffffffffffffffffffffffffffffffffffffff021916908373ffffffffffffffffffffffffffffffffffffffff16021790555050610229565b600033905090565b60008060009054906101000a900473ffffffffffffffffffffffffffffffffffffffff169050816000806101000a81548173ffffffffffffffffffffffffffffffffffffffff021916908373ffffffffffffffffffffffffffffffffffffffff1602179055508173ffffffffffffffffffffffffffffffffffffffff168173ffffffffffffffffffffffffffffffffffffffff167f8be0079c531659141344cd1fd0a4f28419497f9722a3daafe3b4186f6b6457e060405160405180910390a35050565b6000815190506101b181610212565b92915050565b6000602082840312156101c957600080fd5b60006101d7848285016101a2565b91505092915050565b60006101eb826101f2565b9050919050565b600073ffffffffffffffffffffffffffffffffffffffff82169050919050565b61021b816101e0565b811461022657600080fd5b50565b610bd4806102386000396000f3fe608060405234801561001057600080fd5b50600436106100935760003560e01c80638da5cb5b116100665780638da5cb5b1461010c578063b208c98b1461012a578063c00007b014610148578063eacccaf014610178578063f2fde38b1461019457610093565b80630700037d1461009857806330edd34e146100c85780634953c782146100e6578063715018a614610102575b600080fd5b6100b260048036038101906100ad9190610800565b6101b0565b6040516100bf9190610a9d565b60405180910390f35b6100d06101c8565b6040516100dd9190610a27565b60405180910390f35b61010060048036038101906100fb9190610829565b6101ee565b005b61010a6103c6565b005b61011461044e565b60405161012191906109ac565b60405180910390f35b610132610477565b60405161013f9190610a42565b60405180910390f35b610162600480360381019061015d9190610800565b61049d565b60405161016f9190610a9d565b60405180910390f35b610192600480360381019061018d9190610865565b6104eb565b005b6101ae60048036038101906101a99190610800565b6105fd565b005b60036020528060005260406000206000915090505481565b600160009054906101000a900473ffffffffffffffffffffffffffffffffffffffff1681565b6000600360008473ffffffffffffffffffffffffffffffffffffffff1673ffffffffffffffffffffffffffffffffffffffff168152602001908152602001600020549050600260009054906101000a900473ffffffffffffffffffffffffffffffffffffffff1673ffffffffffffffffffffffffffffffffffffffff16631ab67c1584836040518363ffffffff1660e01b815260040161028f9291906109fe565b600060405180830381600087803b1580156102a957600080fd5b505af11580156102bd573d6000803e3d6000fd5b50505050600160009054906101000a900473ffffffffffffffffffffffffffffffffffffffff1673ffffffffffffffffffffffffffffffffffffffff166323b872dd8385846040518463ffffffff1660e01b8152600401610320939291906109c7565b602060405180830381600087803b15801561033a57600080fd5b505af115801561034e573d6000803e3d6000fd5b505050506040513d601f19601f8201168201806040525081019061037291906108a1565b508273ffffffffffffffffffffffffffffffffffffffff167fddd5e1b2a7099d9f5cf575fd6d5e5b7eb29e614e3ac3999bb2d6291fd5fe3688826040516103b99190610a9d565b60405180910390a2505050565b6103ce6106f5565b73ffffffffffffffffffffffffffffffffffffffff166103ec61044e565b73ffffffffffffffffffffffffffffffffffffffff1614610442576040517f08c379a000000000000000000000000000000000000000000000000000000000815260040161043990610a7d565b60405180910390fd5b61044c60006106fd565b565b60008060009054906101000a900473ffffffffffffffffffffffffffffffffffffffff16905090565b600260009054906101000a900473ffffffffffffffffffffffffffffffffffffffff1681565b600080600360008473ffffffffffffffffffffffffffffffffffffffff1673ffffffffffffffffffffffffffffffffffffffff16815260200190815260200160002054905080915050919050565b6104f36106f5565b73ffffffffffffffffffffffffffffffffffffffff1661051161044e565b73ffffffffffffffffffffffffffffffffffffffff1614610567576040517f08c379a000000000000000000000000000000000000000000000000000000000815260040161055e90610a7d565b60405180910390fd5b80600360008473ffffffffffffffffffffffffffffffffffffffff1673ffffffffffffffffffffffffffffffffffffffff168152602001908152602001600020819055508173ffffffffffffffffffffffffffffffffffffffff167fa7c2cccbdfe5cad6f5118c026b4f8308b8a0f415ef25dd8cc2e0c8d03507ed11826040516105f19190610a9d565b60405180910390a25050565b6106056106f5565b73ffffffffffffffffffffffffffffffffffffffff1661062361044e565b73ffffffffffffffffffffffffffffffffffffffff1614610679576040517f08c379a000000000000000000000000000000000000000000000000000000000815260040161067090610a7d565b60405180910390fd5b600073ffffffffffffffffffffffffffffffffffffffff168173ffffffffffffffffffffffffffffffffffffffff1614156106e9576040517f08c379a00000000000000000000000000000000000000000000000000000000081526004016106e090610a5d565b60405180910390fd5b6106f2816106fd565b50565b600033905090565b60008060009054906101000a900473ffffffffffffffffffffffffffffffffffffffff169050816000806101000a81548173ffffffffffffffffffffffffffffffffffffffff021916908373ffffffffffffffffffffffffffffffffffffffff1602179055508173ffffffffffffffffffffffffffffffffffffffff168173ffffffffffffffffffffffffffffffffffffffff167f8be0079c531659141344cd1fd0a4f28419497f9722a3daafe3b4186f6b6457e060405160405180910390a35050565b6000813590506107d081610b59565b92915050565b6000815190506107e581610b70565b92915050565b6000813590506107fa81610b87565b92915050565b60006020828403121561081257600080fd5b6000610820848285016107c1565b91505092915050565b6000806040838503121561083c57600080fd5b600061084a858286016107c1565b925050602061085b858286016107c1565b9150509250929050565b6000806040838503121561087857600080fd5b6000610886858286016107c1565b9250506020610897858286016107eb565b9150509250929050565b6000602082840312156108b357600080fd5b60006108c1848285016107d6565b91505092915050565b6108d381610ac9565b82525050565b6108e281610b11565b82525050565b6108f181610b35565b82525050565b6000610904602683610ab8565b91507f4f776e61626c653a206e6577206f776e657220697320746865207a65726f206160008301527f64647265737300000000000000000000000000000000000000000000000000006020830152604082019050919050565b600061096a602083610ab8565b91507f4f776e61626c653a2063616c6c6572206973206e6f7420746865206f776e65726000830152602082019050919050565b6109a681610b07565b82525050565b60006020820190506109c160008301846108ca565b92915050565b60006060820190506109dc60008301866108ca565b6109e960208301856108ca565b6109f6604083018461099d565b949350505050565b6000604082019050610a1360008301856108ca565b610a20602083018461099d565b9392505050565b6000602082019050610a3c60008301846108d9565b92915050565b6000602082019050610a5760008301846108e8565b92915050565b60006020820190508181036000830152610a76816108f7565b9050919050565b60006020820190508181036000830152610a968161095d565b9050919050565b6000602082019050610ab2600083018461099d565b92915050565b600082825260208201905092915050565b6000610ad482610ae7565b9050919050565b60008115159050919050565b600073ffffffffffffffffffffffffffffffffffffffff82169050919050565b6000819050919050565b6000610b1c82610b23565b9050919050565b6000610b2e82610ae7565b9050919050565b6000610b4082610b47565b9050919050565b6000610b5282610ae7565b9050919050565b610b6281610ac9565b8114610b6d57600080fd5b50565b610b7981610adb565b8114610b8457600080fd5b50565b610b9081610b07565b8114610b9b57600080fd5b5056fea2646970667358221220f93be24094d825ffd2a3d748db6e049d1cf25ea0b8953452dcebefd1d28fe92864736f6c63430008000033",
  "immutableReferences": {},
  "source": "//SPDX-License-Identifier: MIT\r\npragma solidity >=0.7.0 <0.9.0;\r\npragma abicoder v2;\r\nimport \"@openzeppelin/contracts/access/Ownable.sol\";\r\nimport \"@openzeppelin/contracts/interfaces/IERC20.sol\";\r\nimport  \"./token.sol\";\r\n\r\n contract ScapulaRewardMinter is Ownable{\r\n   IERC20 public SCAAP;\r\n   ISCAAP public SCAPULA;\r\n   mapping(address => uint) public rewards;\r\n   event setreward (\r\n       uint amount,\r\n       address indexed account\r\n  );\r\n  event claim (\r\n      uint amount,\r\n      address indexed account\r\n  );\r\n\r\n    constructor(address _SCAAPaddress) {\r\n        SCAAP = IERC20(_SCAAPaddress);\r\n        SCAPULA=ISCAAP(_SCAAPaddress);\r\n    }\r\n      \r\n     function getReward(address account)  public view returns(uint256)  {\r\n       uint256 balance= rewards[account];\r\n        return balance;\r\n    }\r\n\r\n     function setReward(address account,uint256 amount)  public onlyOwner  {\r\n        rewards[account] = amount;\r\n        emit setreward(amount,account);\r\n    }\r\n\r\n    function claimReward(address _address, address _spender) public{\r\n        uint256 rewardAmount = rewards[_address];\r\n        SCAPULA._mintReward(_address,rewardAmount);\r\n       \r\n        SCAAP.transferFrom(_spender,_address, rewardAmount);\r\n        emit claim(rewardAmount,_address);\r\n    }\r\n    \r\n }\r\n",
  "sourcePath": "C:/Users/user/Desktop/web dev/mededu/scapula dev/scapula/contracts/scapularewardminter.sol",
  "compiler": {
    "name": "solc",
    "version": "0.8.0+commit.c7dfd78e.Emscripten.clang"
  },
  "schemaVersion": "3.4.1",
  "updatedAt": "2022-07-03T21:09:12.872Z",
  "devdoc": {
    "kind": "dev",
    "methods": {
      "owner()": {
        "details": "Returns the address of the current owner."
      },
      "renounceOwnership()": {
        "details": "Leaves the contract without owner. It will not be possible to call `onlyOwner` functions anymore. Can only be called by the current owner. NOTE: Renouncing ownership will leave the contract without an owner, thereby removing any functionality that is only available to the owner."
      },
      "transferOwnership(address)": {
        "details": "Transfers ownership of the contract to a new account (`newOwner`). Can only be called by the current owner."
      }
    },
    "version": 1
  },
  "userdoc": {
    "kind": "user",
    "methods": {},
    "version": 1
  }
}