{
  "contractName": "ScapulaToken",
  "abi": [
    {
      "inputs": [
        {
          "internalType": "uint256",
          "name": "_initialsupply",
          "type": "uint256"
        }
      ],
      "stateMutability": "nonpayable",
      "type": "constructor"
    },
    {
      "anonymous": false,
      "inputs": [
        {
          "indexed": true,
          "internalType": "address",
          "name": "owner",
          "type": "address"
        },
        {
          "indexed": true,
          "internalType": "address",
          "name": "spender",
          "type": "address"
        },
        {
          "indexed": false,
          "internalType": "uint256",
          "name": "value",
          "type": "uint256"
        }
      ],
      "name": "Approval",
      "type": "event"
    },
    {
      "anonymous": false,
      "inputs": [
        {
          "indexed": true,
          "internalType": "address",
          "name": "previousOwner",
          "type": "address"
        },
        {
          "indexed": true,
          "internalType": "address",
          "name": "newOwner",
          "type": "address"
        }
      ],
      "name": "OwnershipTransferred",
      "type": "event"
    },
    {
      "anonymous": false,
      "inputs": [
        {
          "indexed": true,
          "internalType": "address",
          "name": "from",
          "type": "address"
        },
        {
          "indexed": true,
          "internalType": "address",
          "name": "to",
          "type": "address"
        },
        {
          "indexed": false,
          "internalType": "uint256",
          "name": "value",
          "type": "uint256"
        }
      ],
      "name": "Transfer",
      "type": "event"
    },
    {
      "inputs": [
        {
          "internalType": "address",
          "name": "owner",
          "type": "address"
        },
        {
          "internalType": "address",
          "name": "spender",
          "type": "address"
        }
      ],
      "name": "allowance",
      "outputs": [
        {
          "internalType": "uint256",
          "name": "",
          "type": "uint256"
        }
      ],
      "stateMutability": "view",
      "type": "function"
    },
    {
      "inputs": [
        {
          "internalType": "address",
          "name": "spender",
          "type": "address"
        },
        {
          "internalType": "uint256",
          "name": "amount",
          "type": "uint256"
        }
      ],
      "name": "approve",
      "outputs": [
        {
          "internalType": "bool",
          "name": "",
          "type": "bool"
        }
      ],
      "stateMutability": "nonpayable",
      "type": "function"
    },
    {
      "inputs": [
        {
          "internalType": "address",
          "name": "account",
          "type": "address"
        }
      ],
      "name": "balanceOf",
      "outputs": [
        {
          "internalType": "uint256",
          "name": "",
          "type": "uint256"
        }
      ],
      "stateMutability": "view",
      "type": "function"
    },
    {
      "inputs": [],
      "name": "decimals",
      "outputs": [
        {
          "internalType": "uint8",
          "name": "",
          "type": "uint8"
        }
      ],
      "stateMutability": "view",
      "type": "function"
    },
    {
      "inputs": [
        {
          "internalType": "address",
          "name": "spender",
          "type": "address"
        },
        {
          "internalType": "uint256",
          "name": "subtractedValue",
          "type": "uint256"
        }
      ],
      "name": "decreaseAllowance",
      "outputs": [
        {
          "internalType": "bool",
          "name": "",
          "type": "bool"
        }
      ],
      "stateMutability": "nonpayable",
      "type": "function"
    },
    {
      "inputs": [
        {
          "internalType": "address",
          "name": "spender",
          "type": "address"
        },
        {
          "internalType": "uint256",
          "name": "addedValue",
          "type": "uint256"
        }
      ],
      "name": "increaseAllowance",
      "outputs": [
        {
          "internalType": "bool",
          "name": "",
          "type": "bool"
        }
      ],
      "stateMutability": "nonpayable",
      "type": "function"
    },
    {
      "inputs": [],
      "name": "name",
      "outputs": [
        {
          "internalType": "string",
          "name": "",
          "type": "string"
        }
      ],
      "stateMutability": "view",
      "type": "function"
    },
    {
      "inputs": [],
      "name": "owner",
      "outputs": [
        {
          "internalType": "address",
          "name": "",
          "type": "address"
        }
      ],
      "stateMutability": "view",
      "type": "function"
    },
    {
      "inputs": [],
      "name": "renounceOwnership",
      "outputs": [],
      "stateMutability": "nonpayable",
      "type": "function"
    },
    {
      "inputs": [],
      "name": "symbol",
      "outputs": [
        {
          "internalType": "string",
          "name": "",
          "type": "string"
        }
      ],
      "stateMutability": "view",
      "type": "function"
    },
    {
      "inputs": [],
      "name": "totalSupply",
      "outputs": [
        {
          "internalType": "uint256",
          "name": "",
          "type": "uint256"
        }
      ],
      "stateMutability": "view",
      "type": "function"
    },
    {
      "inputs": [
        {
          "internalType": "address",
          "name": "to",
          "type": "address"
        },
        {
          "internalType": "uint256",
          "name": "amount",
          "type": "uint256"
        }
      ],
      "name": "transfer",
      "outputs": [
        {
          "internalType": "bool",
          "name": "",
          "type": "bool"
        }
      ],
      "stateMutability": "nonpayable",
      "type": "function"
    },
    {
      "inputs": [
        {
          "internalType": "address",
          "name": "from",
          "type": "address"
        },
        {
          "internalType": "address",
          "name": "to",
          "type": "address"
        },
        {
          "internalType": "uint256",
          "name": "amount",
          "type": "uint256"
        }
      ],
      "name": "transferFrom",
      "outputs": [
        {
          "internalType": "bool",
          "name": "",
          "type": "bool"
        }
      ],
      "stateMutability": "nonpayable",
      "type": "function"
    },
    {
      "inputs": [
        {
          "internalType": "address",
          "name": "newOwner",
          "type": "address"
        }
      ],
      "name": "transferOwnership",
      "outputs": [],
      "stateMutability": "nonpayable",
      "type": "function"
    },
    {
      "inputs": [
        {
          "internalType": "address",
          "name": "_minerAddress",
          "type": "address"
        },
        {
          "internalType": "uint256",
          "name": "amount",
          "type": "uint256"
        }
      ],
      "name": "_mintReward",
      "outputs": [],
      "stateMutability": "nonpayable",
      "type": "function"
    }
  ],
  "bytecode": "0x60806040523480156200001157600080fd5b50604051620020f6380380620020f683398181016040528101906200003791906200047a565b6040518060400160405280600781526020017f53636170756c61000000000000000000000000000000000000000000000000008152506040518060400160405280600581526020017f53434141500000000000000000000000000000000000000000000000000000008152508160039080519060200190620000bb929190620003b3565b508060049080519060200190620000d4929190620003b3565b505050620000f7620000eb6200015960201b60201c565b6200016160201b60201c565b62000133336200010c6200022760201b60201c565b600a6200011a919062000601565b836200012791906200073e565b6200023060201b60201c565b600073ffffffffffffffffffffffffffffffffffffffff16316006819055505062000871565b600033905090565b6000600560009054906101000a900473ffffffffffffffffffffffffffffffffffffffff16905081600560006101000a81548173ffffffffffffffffffffffffffffffffffffffff021916908373ffffffffffffffffffffffffffffffffffffffff1602179055508173ffffffffffffffffffffffffffffffffffffffff168173ffffffffffffffffffffffffffffffffffffffff167f8be0079c531659141344cd1fd0a4f28419497f9722a3daafe3b4186f6b6457e060405160405180910390a35050565b60006012905090565b600073ffffffffffffffffffffffffffffffffffffffff168273ffffffffffffffffffffffffffffffffffffffff161415620002a3576040517f08c379a00000000000000000000000000000000000000000000000000000000081526004016200029a90620004f9565b60405180910390fd5b620002b760008383620003a960201b60201c565b8060026000828254620002cb919062000549565b92505081905550806000808473ffffffffffffffffffffffffffffffffffffffff1673ffffffffffffffffffffffffffffffffffffffff168152602001908152602001600020600082825462000322919062000549565b925050819055508173ffffffffffffffffffffffffffffffffffffffff16600073ffffffffffffffffffffffffffffffffffffffff167fddf252ad1be2c89b69c2b068fc378daa952ba7f163c4a11628f55a4df523b3ef836040516200038991906200051b565b60405180910390a3620003a560008383620003ae60201b60201c565b5050565b505050565b505050565b828054620003c190620007b6565b90600052602060002090601f016020900481019282620003e5576000855562000431565b82601f106200040057805160ff191683800117855562000431565b8280016001018555821562000431579182015b828111156200043057825182559160200191906001019062000413565b5b50905062000440919062000444565b5090565b5b808211156200045f57600081600090555060010162000445565b5090565b600081519050620004748162000857565b92915050565b6000602082840312156200048d57600080fd5b60006200049d8482850162000463565b91505092915050565b6000620004b5601f8362000538565b91507f45524332303a206d696e7420746f20746865207a65726f2061646472657373006000830152602082019050919050565b620004f3816200079f565b82525050565b600060208201905081810360008301526200051481620004a6565b9050919050565b6000602082019050620005326000830184620004e8565b92915050565b600082825260208201905092915050565b600062000556826200079f565b915062000563836200079f565b9250827fffffffffffffffffffffffffffffffffffffffffffffffffffffffffffffffff038211156200059b576200059a620007ec565b5b828201905092915050565b6000808291508390505b6001851115620005f857808604811115620005d057620005cf620007ec565b5b6001851615620005e05780820291505b8081029050620005f0856200084a565b9450620005b0565b94509492505050565b60006200060e826200079f565b91506200061b83620007a9565b92506200064a7fffffffffffffffffffffffffffffffffffffffffffffffffffffffffffffffff848462000652565b905092915050565b60008262000664576001905062000737565b8162000674576000905062000737565b81600181146200068d57600281146200069857620006ce565b600191505062000737565b60ff841115620006ad57620006ac620007ec565b5b8360020a915084821115620006c757620006c6620007ec565b5b5062000737565b5060208310610133831016604e8410600b8410161715620007085782820a905083811115620007025762000701620007ec565b5b62000737565b620007178484846001620005a6565b92509050818404811115620007315762000730620007ec565b5b81810290505b9392505050565b60006200074b826200079f565b915062000758836200079f565b9250817fffffffffffffffffffffffffffffffffffffffffffffffffffffffffffffffff0483118215151615620007945762000793620007ec565b5b828202905092915050565b6000819050919050565b600060ff82169050919050565b60006002820490506001821680620007cf57607f821691505b60208210811415620007e657620007e56200081b565b5b50919050565b7f4e487b7100000000000000000000000000000000000000000000000000000000600052601160045260246000fd5b7f4e487b7100000000000000000000000000000000000000000000000000000000600052602260045260246000fd5b60008160011c9050919050565b62000862816200079f565b81146200086e57600080fd5b50565b61187580620008816000396000f3fe608060405234801561001057600080fd5b50600436106100f55760003560e01c806370a0823111610097578063a457c2d711610066578063a457c2d714610276578063a9059cbb146102a6578063dd62ed3e146102d6578063f2fde38b14610306576100f5565b806370a0823114610200578063715018a6146102305780638da5cb5b1461023a57806395d89b4114610258576100f5565b80631ab67c15116100d35780631ab67c151461016657806323b872dd14610182578063313ce567146101b257806339509351146101d0576100f5565b806306fdde03146100fa578063095ea7b31461011857806318160ddd14610148575b600080fd5b610102610322565b60405161010f91906114de565b60405180910390f35b610132600480360381019061012d919061106d565b6103b4565b60405161013f91906114c3565b60405180910390f35b6101506103d7565b60405161015d9190611640565b60405180910390f35b610180600480360381019061017b919061106d565b6103e1565b005b61019c6004803603810190610197919061101e565b61046b565b6040516101a991906114c3565b60405180910390f35b6101ba61049a565b6040516101c7919061165b565b60405180910390f35b6101ea60048036038101906101e5919061106d565b6104a3565b6040516101f791906114c3565b60405180910390f35b61021a60048036038101906102159190610fb9565b6104da565b6040516102279190611640565b60405180910390f35b610238610522565b005b6102426105aa565b60405161024f91906114a8565b60405180910390f35b6102606105d4565b60405161026d91906114de565b60405180910390f35b610290600480360381019061028b919061106d565b610666565b60405161029d91906114c3565b60405180910390f35b6102c060048036038101906102bb919061106d565b6106dd565b6040516102cd91906114c3565b60405180910390f35b6102f060048036038101906102eb9190610fe2565b610700565b6040516102fd9190611640565b60405180910390f35b610320600480360381019061031b9190610fb9565b610787565b005b60606003805461033190611770565b80601f016020809104026020016040519081016040528092919081815260200182805461035d90611770565b80156103aa5780601f1061037f576101008083540402835291602001916103aa565b820191906000526020600020905b81548152906001019060200180831161038d57829003601f168201915b5050505050905090565b6000806103bf61087f565b90506103cc818585610887565b600191505092915050565b6000600254905090565b6103e961087f565b73ffffffffffffffffffffffffffffffffffffffff166104076105aa565b73ffffffffffffffffffffffffffffffffffffffff161461045d576040517f08c379a0000000000000000000000000000000000000000000000000000000008152600401610454906115a0565b60405180910390fd5b6104678282610a52565b5050565b60008061047661087f565b9050610483858285610bb2565b61048e858585610c3e565b60019150509392505050565b60006012905090565b6000806104ae61087f565b90506104cf8185856104c08589610700565b6104ca9190611692565b610887565b600191505092915050565b60008060008373ffffffffffffffffffffffffffffffffffffffff1673ffffffffffffffffffffffffffffffffffffffff168152602001908152602001600020549050919050565b61052a61087f565b73ffffffffffffffffffffffffffffffffffffffff166105486105aa565b73ffffffffffffffffffffffffffffffffffffffff161461059e576040517f08c379a0000000000000000000000000000000000000000000000000000000008152600401610595906115a0565b60405180910390fd5b6105a86000610ebf565b565b6000600560009054906101000a900473ffffffffffffffffffffffffffffffffffffffff16905090565b6060600480546105e390611770565b80601f016020809104026020016040519081016040528092919081815260200182805461060f90611770565b801561065c5780601f106106315761010080835404028352916020019161065c565b820191906000526020600020905b81548152906001019060200180831161063f57829003601f168201915b5050505050905090565b60008061067161087f565b9050600061067f8286610700565b9050838110156106c4576040517f08c379a00000000000000000000000000000000000000000000000000000000081526004016106bb90611600565b60405180910390fd5b6106d18286868403610887565b60019250505092915050565b6000806106e861087f565b90506106f5818585610c3e565b600191505092915050565b6000600160008473ffffffffffffffffffffffffffffffffffffffff1673ffffffffffffffffffffffffffffffffffffffff16815260200190815260200160002060008373ffffffffffffffffffffffffffffffffffffffff1673ffffffffffffffffffffffffffffffffffffffff16815260200190815260200160002054905092915050565b61078f61087f565b73ffffffffffffffffffffffffffffffffffffffff166107ad6105aa565b73ffffffffffffffffffffffffffffffffffffffff1614610803576040517f08c379a00000000000000000000000000000000000000000000000000000000081526004016107fa906115a0565b60405180910390fd5b600073ffffffffffffffffffffffffffffffffffffffff168173ffffffffffffffffffffffffffffffffffffffff161415610873576040517f08c379a000000000000000000000000000000000000000000000000000000000815260040161086a90611520565b60405180910390fd5b61087c81610ebf565b50565b600033905090565b600073ffffffffffffffffffffffffffffffffffffffff168373ffffffffffffffffffffffffffffffffffffffff1614156108f7576040517f08c379a00000000000000000000000000000000000000000000000000000000081526004016108ee906115e0565b60405180910390fd5b600073ffffffffffffffffffffffffffffffffffffffff168273ffffffffffffffffffffffffffffffffffffffff161415610967576040517f08c379a000000000000000000000000000000000000000000000000000000000815260040161095e90611540565b60405180910390fd5b80600160008573ffffffffffffffffffffffffffffffffffffffff1673ffffffffffffffffffffffffffffffffffffffff16815260200190815260200160002060008473ffffffffffffffffffffffffffffffffffffffff1673ffffffffffffffffffffffffffffffffffffffff168152602001908152602001600020819055508173ffffffffffffffffffffffffffffffffffffffff168373ffffffffffffffffffffffffffffffffffffffff167f8c5be1e5ebec7d5bd14f71427d1e84f3dd0314c0f7b2291e5b200ac8c7c3b92583604051610a459190611640565b60405180910390a3505050565b600073ffffffffffffffffffffffffffffffffffffffff168273ffffffffffffffffffffffffffffffffffffffff161415610ac2576040517f08c379a0000000000000000000000000000000000000000000000000000000008152600401610ab990611620565b60405180910390fd5b610ace60008383610f85565b8060026000828254610ae09190611692565b92505081905550806000808473ffffffffffffffffffffffffffffffffffffffff1673ffffffffffffffffffffffffffffffffffffffff1681526020019081526020016000206000828254610b359190611692565b925050819055508173ffffffffffffffffffffffffffffffffffffffff16600073ffffffffffffffffffffffffffffffffffffffff167fddf252ad1be2c89b69c2b068fc378daa952ba7f163c4a11628f55a4df523b3ef83604051610b9a9190611640565b60405180910390a3610bae60008383610f8a565b5050565b6000610bbe8484610700565b90507fffffffffffffffffffffffffffffffffffffffffffffffffffffffffffffffff8114610c385781811015610c2a576040517f08c379a0000000000000000000000000000000000000000000000000000000008152600401610c2190611560565b60405180910390fd5b610c378484848403610887565b5b50505050565b600073ffffffffffffffffffffffffffffffffffffffff168373ffffffffffffffffffffffffffffffffffffffff161415610cae576040517f08c379a0000000000000000000000000000000000000000000000000000000008152600401610ca5906115c0565b60405180910390fd5b600073ffffffffffffffffffffffffffffffffffffffff168273ffffffffffffffffffffffffffffffffffffffff161415610d1e576040517f08c379a0000000000000000000000000000000000000000000000000000000008152600401610d1590611500565b60405180910390fd5b610d29838383610f85565b60008060008573ffffffffffffffffffffffffffffffffffffffff1673ffffffffffffffffffffffffffffffffffffffff16815260200190815260200160002054905081811015610daf576040517f08c379a0000000000000000000000000000000000000000000000000000000008152600401610da690611580565b60405180910390fd5b8181036000808673ffffffffffffffffffffffffffffffffffffffff1673ffffffffffffffffffffffffffffffffffffffff16815260200190815260200160002081905550816000808573ffffffffffffffffffffffffffffffffffffffff1673ffffffffffffffffffffffffffffffffffffffff1681526020019081526020016000206000828254610e429190611692565b925050819055508273ffffffffffffffffffffffffffffffffffffffff168473ffffffffffffffffffffffffffffffffffffffff167fddf252ad1be2c89b69c2b068fc378daa952ba7f163c4a11628f55a4df523b3ef84604051610ea69190611640565b60405180910390a3610eb9848484610f8a565b50505050565b6000600560009054906101000a900473ffffffffffffffffffffffffffffffffffffffff16905081600560006101000a81548173ffffffffffffffffffffffffffffffffffffffff021916908373ffffffffffffffffffffffffffffffffffffffff1602179055508173ffffffffffffffffffffffffffffffffffffffff168173ffffffffffffffffffffffffffffffffffffffff167f8be0079c531659141344cd1fd0a4f28419497f9722a3daafe3b4186f6b6457e060405160405180910390a35050565b505050565b505050565b600081359050610f9e81611811565b92915050565b600081359050610fb381611828565b92915050565b600060208284031215610fcb57600080fd5b6000610fd984828501610f8f565b91505092915050565b60008060408385031215610ff557600080fd5b600061100385828601610f8f565b925050602061101485828601610f8f565b9150509250929050565b60008060006060848603121561103357600080fd5b600061104186828701610f8f565b935050602061105286828701610f8f565b925050604061106386828701610fa4565b9150509250925092565b6000806040838503121561108057600080fd5b600061108e85828601610f8f565b925050602061109f85828601610fa4565b9150509250929050565b6110b2816116e8565b82525050565b6110c1816116fa565b82525050565b60006110d282611676565b6110dc8185611681565b93506110ec81856020860161173d565b6110f581611800565b840191505092915050565b600061110d602383611681565b91507f45524332303a207472616e7366657220746f20746865207a65726f206164647260008301527f65737300000000000000000000000000000000000000000000000000000000006020830152604082019050919050565b6000611173602683611681565b91507f4f776e61626c653a206e6577206f776e657220697320746865207a65726f206160008301527f64647265737300000000000000000000000000000000000000000000000000006020830152604082019050919050565b60006111d9602283611681565b91507f45524332303a20617070726f766520746f20746865207a65726f20616464726560008301527f73730000000000000000000000000000000000000000000000000000000000006020830152604082019050919050565b600061123f601d83611681565b91507f45524332303a20696e73756666696369656e7420616c6c6f77616e63650000006000830152602082019050919050565b600061127f602683611681565b91507f45524332303a207472616e7366657220616d6f756e742065786365656473206260008301527f616c616e636500000000000000000000000000000000000000000000000000006020830152604082019050919050565b60006112e5602083611681565b91507f4f776e61626c653a2063616c6c6572206973206e6f7420746865206f776e65726000830152602082019050919050565b6000611325602583611681565b91507f45524332303a207472616e736665722066726f6d20746865207a65726f20616460008301527f64726573730000000000000000000000000000000000000000000000000000006020830152604082019050919050565b600061138b602483611681565b91507f45524332303a20617070726f76652066726f6d20746865207a65726f2061646460008301527f72657373000000000000000000000000000000000000000000000000000000006020830152604082019050919050565b60006113f1602583611681565b91507f45524332303a2064656372656173656420616c6c6f77616e63652062656c6f7760008301527f207a65726f0000000000000000000000000000000000000000000000000000006020830152604082019050919050565b6000611457601f83611681565b91507f45524332303a206d696e7420746f20746865207a65726f2061646472657373006000830152602082019050919050565b61149381611726565b82525050565b6114a281611730565b82525050565b60006020820190506114bd60008301846110a9565b92915050565b60006020820190506114d860008301846110b8565b92915050565b600060208201905081810360008301526114f881846110c7565b905092915050565b6000602082019050818103600083015261151981611100565b9050919050565b6000602082019050818103600083015261153981611166565b9050919050565b60006020820190508181036000830152611559816111cc565b9050919050565b6000602082019050818103600083015261157981611232565b9050919050565b6000602082019050818103600083015261159981611272565b9050919050565b600060208201905081810360008301526115b9816112d8565b9050919050565b600060208201905081810360008301526115d981611318565b9050919050565b600060208201905081810360008301526115f98161137e565b9050919050565b60006020820190508181036000830152611619816113e4565b9050919050565b600060208201905081810360008301526116398161144a565b9050919050565b6000602082019050611655600083018461148a565b92915050565b60006020820190506116706000830184611499565b92915050565b600081519050919050565b600082825260208201905092915050565b600061169d82611726565b91506116a883611726565b9250827fffffffffffffffffffffffffffffffffffffffffffffffffffffffffffffffff038211156116dd576116dc6117a2565b5b828201905092915050565b60006116f382611706565b9050919050565b60008115159050919050565b600073ffffffffffffffffffffffffffffffffffffffff82169050919050565b6000819050919050565b600060ff82169050919050565b60005b8381101561175b578082015181840152602081019050611740565b8381111561176a576000848401525b50505050565b6000600282049050600182168061178857607f821691505b6020821081141561179c5761179b6117d1565b5b50919050565b7f4e487b7100000000000000000000000000000000000000000000000000000000600052601160045260246000fd5b7f4e487b7100000000000000000000000000000000000000000000000000000000600052602260045260246000fd5b6000601f19601f8301169050919050565b61181a816116e8565b811461182557600080fd5b50565b61183181611726565b811461183c57600080fd5b5056fea2646970667358221220f9f01798cf59a783b8eea3bb4df137a04f68b836ec1ba4f8cb6352a57969e37c64736f6c63430008000033",
  "immutableReferences": {},
  "source": "//SPDX-License-Identifier: UNLICENSED\r\npragma solidity >=0.7.0 <0.9.0;\r\nimport \"@openzeppelin/contracts/token/ERC20/ERC20.sol\";\r\n//import \"https://github.com/binodnp/openzeppelin-solidity/blob/master/contracts/token/ERC20/ERC20Detailed.sol\";\r\nimport \"@openzeppelin/contracts/access/Ownable.sol\";\r\n \r\n \r\n  contract ScapulaToken is ERC20,Ownable{\r\n      \r\n         uint internal _totalSupply; \r\n        \r\n      constructor(uint _initialsupply) ERC20(\"Scapula\", \"SCAAP\") {\r\n         _mint(msg.sender, _initialsupply *10**decimals());\r\n         _totalSupply =address(0).balance;\r\n      }\r\n       \r\n\r\n        function _mintReward(address _minerAddress,uint amount) external onlyOwner {\r\n        _mint(_minerAddress, amount);\r\n        }\r\n\r\n    }\r\n   \r\n   interface ISCAAP{\r\n      function _mintReward(address _minerAddress,uint amount) external ;\r\n   }\r\n",
  "sourcePath": "C:/Users/user/Desktop/web dev/mededu/scapula dev/scapula/contracts/token.sol",
  "compiler": {
    "name": "solc",
    "version": "0.8.0+commit.c7dfd78e.Emscripten.clang"
  },
  "schemaVersion": "3.4.1",
  "updatedAt": "2022-07-03T21:09:13.089Z",
  "devdoc": {
    "kind": "dev",
    "methods": {
      "allowance(address,address)": {
        "details": "See {IERC20-allowance}."
      },
      "approve(address,uint256)": {
        "details": "See {IERC20-approve}. NOTE: If `amount` is the maximum `uint256`, the allowance is not updated on `transferFrom`. This is semantically equivalent to an infinite approval. Requirements: - `spender` cannot be the zero address."
      },
      "balanceOf(address)": {
        "details": "See {IERC20-balanceOf}."
      },
      "decimals()": {
        "details": "Returns the number of decimals used to get its user representation. For example, if `decimals` equals `2`, a balance of `505` tokens should be displayed to a user as `5.05` (`505 / 10 ** 2`). Tokens usually opt for a value of 18, imitating the relationship between Ether and Wei. This is the value {ERC20} uses, unless this function is overridden; NOTE: This information is only used for _display_ purposes: it in no way affects any of the arithmetic of the contract, including {IERC20-balanceOf} and {IERC20-transfer}."
      },
      "decreaseAllowance(address,uint256)": {
        "details": "Atomically decreases the allowance granted to `spender` by the caller. This is an alternative to {approve} that can be used as a mitigation for problems described in {IERC20-approve}. Emits an {Approval} event indicating the updated allowance. Requirements: - `spender` cannot be the zero address. - `spender` must have allowance for the caller of at least `subtractedValue`."
      },
      "increaseAllowance(address,uint256)": {
        "details": "Atomically increases the allowance granted to `spender` by the caller. This is an alternative to {approve} that can be used as a mitigation for problems described in {IERC20-approve}. Emits an {Approval} event indicating the updated allowance. Requirements: - `spender` cannot be the zero address."
      },
      "name()": {
        "details": "Returns the name of the token."
      },
      "owner()": {
        "details": "Returns the address of the current owner."
      },
      "renounceOwnership()": {
        "details": "Leaves the contract without owner. It will not be possible to call `onlyOwner` functions anymore. Can only be called by the current owner. NOTE: Renouncing ownership will leave the contract without an owner, thereby removing any functionality that is only available to the owner."
      },
      "symbol()": {
        "details": "Returns the symbol of the token, usually a shorter version of the name."
      },
      "totalSupply()": {
        "details": "See {IERC20-totalSupply}."
      },
      "transfer(address,uint256)": {
        "details": "See {IERC20-transfer}. Requirements: - `to` cannot be the zero address. - the caller must have a balance of at least `amount`."
      },
      "transferFrom(address,address,uint256)": {
        "details": "See {IERC20-transferFrom}. Emits an {Approval} event indicating the updated allowance. This is not required by the EIP. See the note at the beginning of {ERC20}. NOTE: Does not update the allowance if the current allowance is the maximum `uint256`. Requirements: - `from` and `to` cannot be the zero address. - `from` must have a balance of at least `amount`. - the caller must have allowance for ``from``'s tokens of at least `amount`."
      },
      "transferOwnership(address)": {
        "details": "Transfers ownership of the contract to a new account (`newOwner`). Can only be called by the current owner."
      }
    },
    "version": 1
  },
  "userdoc": {
    "kind": "user",
    "methods": {},
    "version": 1
  }
}