{
  "contractName": "ScapulaVids",
  "abi": [
    {
      "anonymous": false,
      "inputs": [
        {
          "indexed": false,
          "internalType": "string",
          "name": "id",
          "type": "string"
        },
        {
          "indexed": false,
          "internalType": "string",
          "name": "vidCid",
          "type": "string"
        },
        {
          "indexed": false,
          "internalType": "string",
          "name": "thumbnailCid",
          "type": "string"
        },
        {
          "indexed": false,
          "internalType": "string",
          "name": "title",
          "type": "string"
        },
        {
          "indexed": false,
          "internalType": "string",
          "name": "tag",
          "type": "string"
        },
        {
          "indexed": false,
          "internalType": "address",
          "name": "author",
          "type": "address"
        },
        {
          "indexed": false,
          "internalType": "uint256",
          "name": "length",
          "type": "uint256"
        }
      ],
      "name": "VideoUploaded",
      "type": "event"
    },
    {
      "inputs": [],
      "name": "name",
      "outputs": [
        {
          "internalType": "string",
          "name": "",
          "type": "string"
        }
      ],
      "stateMutability": "view",
      "type": "function"
    },
    {
      "inputs": [],
      "name": "videoCount",
      "outputs": [
        {
          "internalType": "uint256",
          "name": "",
          "type": "uint256"
        }
      ],
      "stateMutability": "view",
      "type": "function"
    },
    {
      "inputs": [
        {
          "internalType": "uint256",
          "name": "",
          "type": "uint256"
        }
      ],
      "name": "videos",
      "outputs": [
        {
          "internalType": "string",
          "name": "id",
          "type": "string"
        },
        {
          "internalType": "string",
          "name": "title",
          "type": "string"
        },
        {
          "internalType": "string",
          "name": "videoCid",
          "type": "string"
        },
        {
          "internalType": "string",
          "name": "thumbnailCid",
          "type": "string"
        },
        {
          "internalType": "string",
          "name": "tag",
          "type": "string"
        },
        {
          "internalType": "string",
          "name": "description",
          "type": "string"
        },
        {
          "internalType": "address",
          "name": "author",
          "type": "address"
        },
        {
          "internalType": "uint256",
          "name": "length",
          "type": "uint256"
        }
      ],
      "stateMutability": "view",
      "type": "function"
    },
    {
      "inputs": [
        {
          "internalType": "string",
          "name": "vidId",
          "type": "string"
        },
        {
          "internalType": "string",
          "name": "_vidCid",
          "type": "string"
        },
        {
          "internalType": "string",
          "name": "_thumbnailCid",
          "type": "string"
        },
        {
          "internalType": "string",
          "name": "_description",
          "type": "string"
        },
        {
          "internalType": "string",
          "name": "_title",
          "type": "string"
        },
        {
          "internalType": "uint256",
          "name": "length",
          "type": "uint256"
        },
        {
          "internalType": "string",
          "name": "_tag",
          "type": "string"
        }
      ],
      "name": "uploadVideo",
      "outputs": [],
      "stateMutability": "nonpayable",
      "type": "function"
    },
    {
      "inputs": [],
      "name": "getVideos",
      "outputs": [
        {
          "components": [
            {
              "internalType": "string",
              "name": "id",
              "type": "string"
            },
            {
              "internalType": "string",
              "name": "title",
              "type": "string"
            },
            {
              "internalType": "string",
              "name": "videoCid",
              "type": "string"
            },
            {
              "internalType": "string",
              "name": "thumbnailCid",
              "type": "string"
            },
            {
              "internalType": "string",
              "name": "tag",
              "type": "string"
            },
            {
              "internalType": "string",
              "name": "description",
              "type": "string"
            },
            {
              "internalType": "address",
              "name": "author",
              "type": "address"
            },
            {
              "internalType": "uint256",
              "name": "length",
              "type": "uint256"
            }
          ],
          "internalType": "struct ScapulaVids.Video[]",
          "name": "",
          "type": "tuple[]"
        }
      ],
      "stateMutability": "view",
      "type": "function"
    }
  ],
  "bytecode": "0x6080604052600080556040518060400160405280600e81526020017f53636170756c6120766964656f7300000000000000000000000000000000000081525060019080519060200190620000559291906200006a565b503480156200006357600080fd5b506200017f565b82805462000078906200011a565b90600052602060002090601f0160209004810192826200009c5760008555620000e8565b82601f10620000b757805160ff1916838001178555620000e8565b82800160010185558215620000e8579182015b82811115620000e7578251825591602001919060010190620000ca565b5b509050620000f79190620000fb565b5090565b5b8082111562000116576000816000905550600101620000fc565b5090565b600060028204905060018216806200013357607f821691505b602082108114156200014a576200014962000150565b5b50919050565b7f4e487b7100000000000000000000000000000000000000000000000000000000600052602260045260246000fd5b61154c806200018f6000396000f3fe608060405234801561001057600080fd5b50600436106100575760003560e01c806306fdde031461005c5780630dd647151461007a57806368f2d16514610096578063c61b5f4c146100b4578063e6821bf5146100d2575b600080fd5b610064610109565b604051610071919061112a565b60405180910390f35b610094600480360381019061008f9190610da7565b610197565b005b61009e6103b6565b6040516100ab9190611108565b60405180910390f35b6100bc61088e565b6040516100c99190611286565b60405180910390f35b6100ec60048036038101906100e79190610ed5565b610894565b6040516101009897969594939291906111de565b60405180910390f35b60018054610116906113e6565b80601f0160208091040260200160405190810160405280929190818152602001828054610142906113e6565b801561018f5780601f106101645761010080835404028352916020019161018f565b820191906000526020600020905b81548152906001019060200180831161017257829003601f168201915b505050505081565b60008651116101a557600080fd5b60008351116101b357600080fd5b600073ffffffffffffffffffffffffffffffffffffffff163373ffffffffffffffffffffffffffffffffffffffff1614156101ed57600080fd5b6000808154809291906101ff90611418565b91905055506040518061010001604052808881526020018781526020018681526020018481526020018281526020018581526020013373ffffffffffffffffffffffffffffffffffffffff1681526020018381525060026000805481526020019081526020016000206000820151816000019080519060200190610284929190610c2c565b5060208201518160010190805190602001906102a1929190610c2c565b5060408201518160020190805190602001906102be929190610c2c565b5060608201518160030190805190602001906102db929190610c2c565b5060808201518160040190805190602001906102f8929190610c2c565b5060a0820151816005019080519060200190610315929190610c2c565b5060c08201518160060160006101000a81548173ffffffffffffffffffffffffffffffffffffffff021916908373ffffffffffffffffffffffffffffffffffffffff16021790555060e082015181600701559050507fa71454fe9d5867d1d854e46584b455c436e84eb38712e893dd7208be8810cb9f878787868533886040516103a5979695949392919061114c565b60405180910390a150505050505050565b60606000805467ffffffffffffffff8111156103fb577f4e487b7100000000000000000000000000000000000000000000000000000000600052604160045260246000fd5b60405190808252806020026020018201604052801561043457816020015b610421610cb2565b8152602001906001900390816104195790505b50905060005b600054811015610886576002600082815260200190815260200160002060405180610100016040529081600082018054610473906113e6565b80601f016020809104026020016040519081016040528092919081815260200182805461049f906113e6565b80156104ec5780601f106104c1576101008083540402835291602001916104ec565b820191906000526020600020905b8154815290600101906020018083116104cf57829003601f168201915b50505050508152602001600182018054610505906113e6565b80601f0160208091040260200160405190810160405280929190818152602001828054610531906113e6565b801561057e5780601f106105535761010080835404028352916020019161057e565b820191906000526020600020905b81548152906001019060200180831161056157829003601f168201915b50505050508152602001600282018054610597906113e6565b80601f01602080910402602001604051908101604052809291908181526020018280546105c3906113e6565b80156106105780601f106105e557610100808354040283529160200191610610565b820191906000526020600020905b8154815290600101906020018083116105f357829003601f168201915b50505050508152602001600382018054610629906113e6565b80601f0160208091040260200160405190810160405280929190818152602001828054610655906113e6565b80156106a25780601f10610677576101008083540402835291602001916106a2565b820191906000526020600020905b81548152906001019060200180831161068557829003601f168201915b505050505081526020016004820180546106bb906113e6565b80601f01602080910402602001604051908101604052809291908181526020018280546106e7906113e6565b80156107345780601f1061070957610100808354040283529160200191610734565b820191906000526020600020905b81548152906001019060200180831161071757829003601f168201915b5050505050815260200160058201805461074d906113e6565b80601f0160208091040260200160405190810160405280929190818152602001828054610779906113e6565b80156107c65780601f1061079b576101008083540402835291602001916107c6565b820191906000526020600020905b8154815290600101906020018083116107a957829003601f168201915b505050505081526020016006820160009054906101000a900473ffffffffffffffffffffffffffffffffffffffff1673ffffffffffffffffffffffffffffffffffffffff1673ffffffffffffffffffffffffffffffffffffffff168152602001600782015481525050828281518110610868577f4e487b7100000000000000000000000000000000000000000000000000000000600052603260045260246000fd5b6020026020010181905250808061087e90611418565b91505061043a565b508091505090565b60005481565b60026020528060005260406000206000915090508060000180546108b7906113e6565b80601f01602080910402602001604051908101604052809291908181526020018280546108e3906113e6565b80156109305780601f1061090557610100808354040283529160200191610930565b820191906000526020600020905b81548152906001019060200180831161091357829003601f168201915b505050505090806001018054610945906113e6565b80601f0160208091040260200160405190810160405280929190818152602001828054610971906113e6565b80156109be5780601f10610993576101008083540402835291602001916109be565b820191906000526020600020905b8154815290600101906020018083116109a157829003601f168201915b5050505050908060020180546109d3906113e6565b80601f01602080910402602001604051908101604052809291908181526020018280546109ff906113e6565b8015610a4c5780601f10610a2157610100808354040283529160200191610a4c565b820191906000526020600020905b815481529060010190602001808311610a2f57829003601f168201915b505050505090806003018054610a61906113e6565b80601f0160208091040260200160405190810160405280929190818152602001828054610a8d906113e6565b8015610ada5780601f10610aaf57610100808354040283529160200191610ada565b820191906000526020600020905b815481529060010190602001808311610abd57829003601f168201915b505050505090806004018054610aef906113e6565b80601f0160208091040260200160405190810160405280929190818152602001828054610b1b906113e6565b8015610b685780601f10610b3d57610100808354040283529160200191610b68565b820191906000526020600020905b815481529060010190602001808311610b4b57829003601f168201915b505050505090806005018054610b7d906113e6565b80601f0160208091040260200160405190810160405280929190818152602001828054610ba9906113e6565b8015610bf65780601f10610bcb57610100808354040283529160200191610bf6565b820191906000526020600020905b815481529060010190602001808311610bd957829003601f168201915b5050505050908060060160009054906101000a900473ffffffffffffffffffffffffffffffffffffffff16908060070154905088565b828054610c38906113e6565b90600052602060002090601f016020900481019282610c5a5760008555610ca1565b82601f10610c7357805160ff1916838001178555610ca1565b82800160010185558215610ca1579182015b82811115610ca0578251825591602001919060010190610c85565b5b509050610cae9190610d0d565b5090565b604051806101000160405280606081526020016060815260200160608152602001606081526020016060815260200160608152602001600073ffffffffffffffffffffffffffffffffffffffff168152602001600081525090565b5b80821115610d26576000816000905550600101610d0e565b5090565b6000610d3d610d38846112d2565b6112a1565b905082815260208101848484011115610d5557600080fd5b610d608482856113a4565b509392505050565b600082601f830112610d7957600080fd5b8135610d89848260208601610d2a565b91505092915050565b600081359050610da1816114ff565b92915050565b600080600080600080600060e0888a031215610dc257600080fd5b600088013567ffffffffffffffff811115610ddc57600080fd5b610de88a828b01610d68565b975050602088013567ffffffffffffffff811115610e0557600080fd5b610e118a828b01610d68565b965050604088013567ffffffffffffffff811115610e2e57600080fd5b610e3a8a828b01610d68565b955050606088013567ffffffffffffffff811115610e5757600080fd5b610e638a828b01610d68565b945050608088013567ffffffffffffffff811115610e8057600080fd5b610e8c8a828b01610d68565b93505060a0610e9d8a828b01610d92565b92505060c088013567ffffffffffffffff811115610eba57600080fd5b610ec68a828b01610d68565b91505092959891949750929550565b600060208284031215610ee757600080fd5b6000610ef584828501610d92565b91505092915050565b6000610f0a8383611017565b905092915050565b610f1b81611368565b82525050565b610f2a81611368565b82525050565b6000610f3b82611312565b610f458185611335565b935083602082028501610f5785611302565b8060005b85811015610f935784840389528151610f748582610efe565b9450610f7f83611328565b925060208a01995050600181019050610f5b565b50829750879550505050505092915050565b6000610fb08261131d565b610fba8185611346565b9350610fca8185602086016113b3565b610fd3816114ee565b840191505092915050565b6000610fe98261131d565b610ff38185611357565b93506110038185602086016113b3565b61100c816114ee565b840191505092915050565b60006101008301600083015184820360008601526110358282610fa5565b9150506020830151848203602086015261104f8282610fa5565b915050604083015184820360408601526110698282610fa5565b915050606083015184820360608601526110838282610fa5565b9150506080830151848203608086015261109d8282610fa5565b91505060a083015184820360a08601526110b78282610fa5565b91505060c08301516110cc60c0860182610f12565b5060e08301516110df60e08601826110ea565b508091505092915050565b6110f38161139a565b82525050565b6111028161139a565b82525050565b600060208201905081810360008301526111228184610f30565b905092915050565b600060208201905081810360008301526111448184610fde565b905092915050565b600060e0820190508181036000830152611166818a610fde565b9050818103602083015261117a8189610fde565b9050818103604083015261118e8188610fde565b905081810360608301526111a28187610fde565b905081810360808301526111b68186610fde565b90506111c560a0830185610f21565b6111d260c08301846110f9565b98975050505050505050565b60006101008201905081810360008301526111f9818b610fde565b9050818103602083015261120d818a610fde565b905081810360408301526112218189610fde565b905081810360608301526112358188610fde565b905081810360808301526112498187610fde565b905081810360a083015261125d8186610fde565b905061126c60c0830185610f21565b61127960e08301846110f9565b9998505050505050505050565b600060208201905061129b60008301846110f9565b92915050565b6000604051905081810181811067ffffffffffffffff821117156112c8576112c76114bf565b5b8060405250919050565b600067ffffffffffffffff8211156112ed576112ec6114bf565b5b601f19601f8301169050602081019050919050565b6000819050602082019050919050565b600081519050919050565b600081519050919050565b6000602082019050919050565b600082825260208201905092915050565b600082825260208201905092915050565b600082825260208201905092915050565b60006113738261137a565b9050919050565b600073ffffffffffffffffffffffffffffffffffffffff82169050919050565b6000819050919050565b82818337600083830152505050565b60005b838110156113d15780820151818401526020810190506113b6565b838111156113e0576000848401525b50505050565b600060028204905060018216806113fe57607f821691505b6020821081141561141257611411611490565b5b50919050565b60006114238261139a565b91507fffffffffffffffffffffffffffffffffffffffffffffffffffffffffffffffff82141561145657611455611461565b5b600182019050919050565b7f4e487b7100000000000000000000000000000000000000000000000000000000600052601160045260246000fd5b7f4e487b7100000000000000000000000000000000000000000000000000000000600052602260045260246000fd5b7f4e487b7100000000000000000000000000000000000000000000000000000000600052604160045260246000fd5b6000601f19601f8301169050919050565b6115088161139a565b811461151357600080fd5b5056fea26469706673582212209d7251a7bec916e23df5408467164f1bc5924f85ff1cf9e2759e355a2680c93764736f6c63430008000033",
  "immutableReferences": {},
  "source": "//SPDX-License-Identifier: MIT\r\npragma solidity >=0.8.0 <0.9.0;\r\npragma abicoder v2;\r\n\r\ncontract ScapulaVids{\r\n\r\n\r\n    uint public videoCount=0;\r\n    string public name=\"Scapula videos\";\r\n\r\n    struct Video{\r\n        string id;\r\n        string title;\r\n        string videoCid;\r\n        string thumbnailCid;\r\n        string tag;\r\n        string description;\r\n        address author;\r\n        uint length;\r\n    }\r\n\r\n\r\n    mapping(uint => Video) public videos;\r\n    \r\n    event VideoUploaded(\r\n    string id,\r\n    string vidCid,\r\n    string thumbnailCid,\r\n    string title,\r\n    string tag,\r\n    address author,\r\n    uint length\r\n\r\n  );\r\n    \r\n    function uploadVideo(string memory vidId, string memory _vidCid,string memory _thumbnailCid,string memory _description, string memory _title, uint length, string memory _tag) public {\r\n    // Make sure the video hash exists\r\n    require(bytes(_vidCid).length > 0);\r\n    // Make sure video title exists\r\n    require(bytes(_title).length > 0);\r\n    // Make sure uploader address exists\r\n    require(msg.sender!=address(0));\r\n\r\n    // Increment video id\r\n    videoCount ++;\r\n\r\n    // Add video to the contract\r\n    videos[videoCount] = Video(vidId, _vidCid,_thumbnailCid, _title,_tag,_description, msg.sender, length);\r\n    // Trigger an event\r\n    emit VideoUploaded(vidId, _vidCid,_thumbnailCid, _title,_tag, msg.sender,length);\r\n  }\r\n    \r\n    function getVideos() public view returns(Video[] memory) {\r\n        Video[] memory videolist= new Video[](videoCount);\r\n\r\n        for (uint i = 0; i < videoCount; i++) {\r\n              videolist[i] = videos[i];\r\n         }\r\n\r\n         return videolist;\r\n    }\r\n\r\n\r\n    \r\n}",
  "sourcePath": "C:/Users/user/Desktop/web dev/mededu/scapula dev/scapula/contracts/scapula_video_feeds.sol",
  "compiler": {
    "name": "solc",
    "version": "0.8.0+commit.c7dfd78e.Emscripten.clang"
  },
  "schemaVersion": "3.4.1",
  "updatedAt": "2022-06-10T23:03:09.959Z",
  "devdoc": {
    "kind": "dev",
    "methods": {},
    "version": 1
  },
  "userdoc": {
    "kind": "user",
    "methods": {},
    "version": 1
  }
}